{
    "contractName": "Addresses",
    "abi": [
        {
            "inputs": [],
            "name": "getBalance",
            "outputs": [
                {
                    "internalType": "uint256",
                    "name": "",
                    "type": "uint256"
                }
            ],
            "stateMutability": "view",
            "type": "function"
        },
        {
            "inputs": [],
            "name": "myAddress",
            "outputs": [
                {
                    "internalType": "address",
                    "name": "",
                    "type": "address"
                }
            ],
            "stateMutability": "view",
            "type": "function"
        },
        {
            "inputs": [],
            "name": "newAddress",
            "outputs": [
                {
                    "internalType": "address payable",
                    "name": "",
                    "type": "address"
                }
            ],
            "stateMutability": "view",
            "type": "function"
        },
        {
            "inputs": [],
            "name": "payme",
            "outputs": [],
            "stateMutability": "payable",
            "type": "function"
        },
        {
            "inputs": [
                {
                    "internalType": "address",
                    "name": "_myAddress",
                    "type": "address"
                }
            ],
            "name": "setAddress",
            "outputs": [],
            "stateMutability": "nonpayable",
            "type": "function"
        },
        {
            "inputs": [
                {
                    "internalType": "address payable",
                    "name": "_newAddress",
                    "type": "address"
                }
            ],
            "name": "setnewAddress",
            "outputs": [],
            "stateMutability": "nonpayable",
            "type": "function"
        },
        {
            "inputs": [],
            "name": "transferthemMoneyOut",
            "outputs": [],
            "stateMutability": "nonpayable",
            "type": "function"
        }
    ],
    "bytecode": "608060405234801561001057600080fd5b50610236806100206000396000f3fe6080604052600436106100705760003560e01c8063701466541161004e57806370146654146100f1578063ba6361fb1461008a578063ccdb3f451461012e578063e30081a01461014e57600080fd5b80630642e6ad1461007557806312065fe01461008c57806326b85ee1146100b9575b600080fd5b34801561008157600080fd5b5061008a61018b565b005b34801561009857600080fd5b506000546001600160a01b0316316040519081526020015b60405180910390f35b3480156100c557600080fd5b506000546100d9906001600160a01b031681565b6040516001600160a01b0390911681526020016100b0565b3480156100fd57600080fd5b5061008a61010c3660046101dc565b600180546001600160a01b0319166001600160a01b0392909216919091179055565b34801561013a57600080fd5b506001546100d9906001600160a01b031681565b34801561015a57600080fd5b5061008a6101693660046101dc565b600080546001600160a01b0319166001600160a01b0392909216919091179055565b6001546040516001600160a01b03909116904780156108fc02916000818181858888f193505050501580156101c4573d6000803e3d6000fd5b50565b6001600160a01b03811681146101c457600080fd5b6000602082840312156101ee57600080fd5b81356101f9816101c7565b939250505056fea2646970667358221220b7402f1d78ee0f1182408b93bfe72e7e48ce5f8a74d14e625e789343ee4e61d764736f6c634300080d0033",
    "sourcePath": "c:/Users/USER/Desktop/Solidity/Addresses.sol",
    "compiler": {
        "name": "solc",
        "version": "0.8.13+commit.abaa5c0e"
    },
    "functionHashes": {
        "getBalance()": "12065fe0",
        "myAddress()": "26b85ee1",
        "newAddress()": "ccdb3f45",
        "payme()": "ba6361fb",
        "setAddress(address)": "e30081a0",
        "setnewAddress(address)": "70146654",
        "transferthemMoneyOut()": "0642e6ad"
    },
    "gasEstimates": {
        "creation": {
            "codeDepositCost": "113200",
            "executionCost": "159",
            "totalCost": "113359"
        },
        "external": {
            "getBalance()": "4910",
            "myAddress()": "2382",
            "newAddress()": "2381",
            "payme()": "118",
            "setAddress(address)": "24619",
            "setnewAddress(address)": "24553",
            "transferthemMoneyOut()": "infinite"
        }
    }
}