{
    "contractName": "Exceptions",
    "abi": [
        {
            "inputs": [],
            "stateMutability": "nonpayable",
            "type": "constructor"
        },
        {
            "inputs": [],
            "name": "depositMoney",
            "outputs": [],
            "stateMutability": "payable",
            "type": "function"
        },
        {
            "inputs": [
                {
                    "internalType": "bool",
                    "name": "_running",
                    "type": "bool"
                }
            ],
            "name": "setRunning",
            "outputs": [],
            "stateMutability": "nonpayable",
            "type": "function"
        }
    ],
    "bytecode": "60806040526000805460ff1916905534801561001a57600080fd5b50600080546101003302610100600160a81b031990911617905561011c806100436000396000f3fe60806040526004361060265760003560e01c806316c05aa214602b578063dfd200c5146033575b600080fd5b6031604e565b005b348015603e57600080fd5b506031604a366004609a565b6072565b3360009081526001602052604081208054349290606b90849060c1565b9091555050565b60005461010090046001600160a01b031633036097576000805460ff19168215151790555b50565b60006020828403121560ab57600080fd5b8135801515811460ba57600080fd5b9392505050565b6000821982111560e157634e487b7160e01b600052601160045260246000fd5b50019056fea2646970667358221220679fd60d8df09a6e8968622c8973aba182a2928faee66b3cb73a4ccc355b7afa64736f6c634300080d0033",
    "sourcePath": "c:/Users/USER/Desktop/Solidity/Exceptions.sol",
    "compiler": {
        "name": "solc",
        "version": "0.8.13+commit.abaa5c0e"
    },
    "functionHashes": {
        "depositMoney()": "16c05aa2",
        "setRunning(bool)": "dfd200c5"
    },
    "gasEstimates": {
        "creation": {
            "codeDepositCost": "56800",
            "executionCost": "48572",
            "totalCost": "105372"
        },
        "external": {
            "depositMoney()": "24463",
            "setRunning(bool)": "26638"
        }
    }
}