{
    "contractName": "GetterSetter",
    "abi": [
        {
            "inputs": [],
            "name": "getBothValues",
            "outputs": [
                {
                    "internalType": "uint256",
                    "name": "",
                    "type": "uint256"
                },
                {
                    "internalType": "uint256",
                    "name": "",
                    "type": "uint256"
                }
            ],
            "stateMutability": "view",
            "type": "function"
        },
        {
            "inputs": [],
            "name": "myOtherUint",
            "outputs": [
                {
                    "internalType": "uint256",
                    "name": "",
                    "type": "uint256"
                }
            ],
            "stateMutability": "view",
            "type": "function"
        },
        {
            "inputs": [],
            "name": "myUint",
            "outputs": [
                {
                    "internalType": "uint256",
                    "name": "",
                    "type": "uint256"
                }
            ],
            "stateMutability": "view",
            "type": "function"
        },
        {
            "inputs": [
                {
                    "internalType": "uint256",
                    "name": "_myUint",
                    "type": "uint256"
                },
                {
                    "internalType": "uint256",
                    "name": "_myOtherUint",
                    "type": "uint256"
                }
            ],
            "name": "setBothValues",
            "outputs": [],
            "stateMutability": "nonpayable",
            "type": "function"
        },
        {
            "inputs": [
                {
                    "internalType": "uint256",
                    "name": "_myUint",
                    "type": "uint256"
                }
            ],
            "name": "setmyUint",
            "outputs": [],
            "stateMutability": "nonpayable",
            "type": "function"
        }
    ],
    "bytecode": "608060405234801561001057600080fd5b50610129806100206000396000f3fe6080604052348015600f57600080fd5b506004361060505760003560e01c806306540f7e1460555780630fbdf0b71460705780632248d8cc14607857806337e2f60c146090578063ad3b8d681460a0575b600080fd5b605d60005481565b6040519081526020015b60405180910390f35b605d60015481565b608e608336600460ba565b600091909155600155565b005b608e609b36600460db565b600055565b600054600154604080519283526020830191909152016067565b6000806040838503121560cc57600080fd5b50508035926020909101359150565b60006020828403121560ec57600080fd5b503591905056fea26469706673582212203540d05da58421a2b3b84797cf3644f09e42d9e5b583bfea69f60c576493f23464736f6c634300080d0033",
    "sourcePath": "c:/Users/USER/Desktop/Solidity/GetterSetter.sol",
    "compiler": {
        "name": "solc",
        "version": "0.8.13+commit.abaa5c0e"
    },
    "functionHashes": {
        "getBothValues()": "ad3b8d68",
        "myOtherUint()": "0fbdf0b7",
        "myUint()": "06540f7e",
        "setBothValues(uint256,uint256)": "2248d8cc",
        "setmyUint(uint256)": "37e2f60c"
    },
    "gasEstimates": {
        "creation": {
            "codeDepositCost": "59400",
            "executionCost": "111",
            "totalCost": "59511"
        },
        "external": {
            "getBothValues()": "4473",
            "myOtherUint()": "2284",
            "myUint()": "2262",
            "setBothValues(uint256,uint256)": "44469",
            "setmyUint(uint256)": "22356"
        }
    }
}