{
    "contractName": "GlobalObjects",
    "abi": [
        {
            "inputs": [],
            "stateMutability": "nonpayable",
            "type": "constructor"
        },
        {
            "inputs": [],
            "name": "auctionIsRunning",
            "outputs": [
                {
                    "internalType": "bool",
                    "name": "",
                    "type": "bool"
                }
            ],
            "stateMutability": "view",
            "type": "function"
        },
        {
            "inputs": [],
            "name": "paymeSomething",
            "outputs": [],
            "stateMutability": "payable",
            "type": "function"
        },
        {
            "inputs": [
                {
                    "internalType": "bool",
                    "name": "_auctionIsRunning",
                    "type": "bool"
                }
            ],
            "name": "setAuctionRunning",
            "outputs": [],
            "stateMutability": "nonpayable",
            "type": "function"
        },
        {
            "inputs": [
                {
                    "internalType": "address",
                    "name": "_address",
                    "type": "address"
                }
            ],
            "name": "setTheOwner",
            "outputs": [],
            "stateMutability": "nonpayable",
            "type": "function"
        },
        {
            "inputs": [
                {
                    "internalType": "address payable",
                    "name": "_to",
                    "type": "address"
                }
            ],
            "name": "withdraw",
            "outputs": [],
            "stateMutability": "nonpayable",
            "type": "function"
        }
    ],
    "bytecode": "60806040526000805460ff60a01b1916600160a01b17905534801561002357600080fd5b50600080546001600160a01b03191633179055610245806100456000396000f3fe60806040526004361061004a5760003560e01c806319e4bb6d1461004f578063224cc2ed146100715780633f6f6fe71461007957806351cff8d9146100ae578063d186cfb6146100ce575b600080fd5b34801561005b57600080fd5b5061006f61006a3660046101c9565b6100ee565b005b61006f61011f565b34801561008557600080fd5b5060005461009a90600160a01b900460ff1681565b604051901515815260200160405180910390f35b3480156100ba57600080fd5b5061006f6100c93660046101c9565b610137565b3480156100da57600080fd5b5061006f6100e93660046101ed565b610186565b6000546001600160a01b0316330361011c57600080546001600160a01b0319166001600160a01b0383161790555b50565b600054600160a01b900460ff1661013557600080fd5b565b6000546001600160a01b0316330361011c576040516001600160a01b03821690600090670de0b6b3a76400009082818181858883f19350505050158015610182573d6000803e3d6000fd5b5050565b6000546001600160a01b0316330361011c5760008054821515600160a01b0260ff60a01b1990911617905550565b6001600160a01b038116811461011c57600080fd5b6000602082840312156101db57600080fd5b81356101e6816101b4565b9392505050565b6000602082840312156101ff57600080fd5b813580151581146101e657600080fdfea26469706673582212201e3db450e99fd5bee345c4915bc49c473924db400d2dfd2584547519b2df372664736f6c634300080d0033",
    "sourcePath": "c:/Users/USER/Desktop/Solidity/GlobalObjects.sol",
    "compiler": {
        "name": "solc",
        "version": "0.8.13+commit.abaa5c0e"
    },
    "functionHashes": {
        "auctionIsRunning()": "3f6f6fe7",
        "paymeSomething()": "224cc2ed",
        "setAuctionRunning(bool)": "d186cfb6",
        "setTheOwner(address)": "19e4bb6d",
        "withdraw(address)": "51cff8d9"
    },
    "gasEstimates": {
        "creation": {
            "codeDepositCost": "116200",
            "executionCost": "48636",
            "totalCost": "164836"
        },
        "external": {
            "auctionIsRunning()": "2337",
            "paymeSomething()": "2260",
            "setAuctionRunning(bool)": "26718",
            "setTheOwner(address)": "infinite",
            "withdraw(address)": "infinite"
        }
    }
}