{
    "contractName": "HelloWorld",
    "abi": [
        {
            "inputs": [],
            "name": "helloworld",
            "outputs": [
                {
                    "internalType": "string",
                    "name": "",
                    "type": "string"
                }
            ],
            "stateMutability": "view",
            "type": "function"
        },
        {
            "inputs": [],
            "name": "killMe",
            "outputs": [],
            "stateMutability": "payable",
            "type": "function"
        }
    ],
    "bytecode": "60c0604052600d60808190526c48656c6c6f20576f726c64212160981b60a090815261002e9160009190610041565b5034801561003b57600080fd5b50610114565b82805461004d906100da565b90600052602060002090601f01602090048101928261006f57600085556100b5565b82601f1061008857805160ff19168380011785556100b5565b828001600101855582156100b5579182015b828111156100b557825182559160200191906001019061009a565b506100c19291506100c5565b5090565b5b808211156100c157600081556001016100c6565b600181811c908216806100ee57607f821691505b60208210810361010e57634e487b7160e01b600052602260045260246000fd5b50919050565b6101cf806101236000396000f3fe6080604052600436106100295760003560e01c80632f2f48591461002e578063b603cd8014610059575b600080fd5b34801561003a57600080fd5b50610043610063565b604051610050919061010a565b60405180910390f35b6100616100f1565b005b600080546100709061015f565b80601f016020809104026020016040519081016040528092919081815260200182805461009c9061015f565b80156100e95780601f106100be576101008083540402835291602001916100e9565b820191906000526020600020905b8154815290600101906020018083116100cc57829003601f168201915b505050505081565b600033156100fe57600080fd5b806001600160a01b0316ff5b600060208083528351808285015260005b818110156101375785810183015185820160400152820161011b565b81811115610149576000604083870101525b50601f01601f1916929092016040019392505050565b600181811c9082168061017357607f821691505b60208210810361019357634e487b7160e01b600052602260045260246000fd5b5091905056fea26469706673582212202c23ae85cc68266dfcbc45777791441971104d30548dc540b3aa8c00fc2cfa8564736f6c634300080d0033",
    "sourcePath": "c:/Users/USER/Desktop/Solidity/selfdestruct.sol",
    "compiler": {
        "name": "solc",
        "version": "0.8.13+commit.abaa5c0e"
    },
    "functionHashes": {
        "helloworld()": "2f2f4859",
        "killMe()": "b603cd80"
    },
    "gasEstimates": {
        "creation": {
            "codeDepositCost": "92600",
            "executionCost": "infinite",
            "totalCost": "infinite"
        },
        "external": {
            "helloworld()": "infinite",
            "killMe()": "27754"
        }
    }
}