{
    "contractName": "HelloWorld",
    "abi": [
        {
            "inputs": [
                {
                    "internalType": "string",
                    "name": "_helloworld",
                    "type": "string"
                }
            ],
            "name": "WriteIntoHelloWorld",
            "outputs": [],
            "stateMutability": "nonpayable",
            "type": "function"
        },
        {
            "inputs": [],
            "name": "helloworld",
            "outputs": [
                {
                    "internalType": "string",
                    "name": "",
                    "type": "string"
                }
            ],
            "stateMutability": "view",
            "type": "function"
        }
    ],
    "bytecode": "60c0604052600e60808190526d48656c6c6f20576f726c6420212160901b60a090815261002f9160009190610042565b5034801561003c57600080fd5b50610115565b82805461004e906100db565b90600052602060002090601f01602090048101928261007057600085556100b6565b82601f1061008957805160ff19168380011785556100b6565b828001600101855582156100b6579182015b828111156100b657825182559160200191906001019061009b565b506100c29291506100c6565b5090565b5b808211156100c257600081556001016100c7565b600181811c908216806100ef57607f821691505b60208210810361010f57634e487b7160e01b600052602260045260246000fd5b50919050565b610338806101246000396000f3fe608060405234801561001057600080fd5b50600436106100365760003560e01c80632f2f48591461003b578063a00b114e14610059575b600080fd5b61004361006e565b60405161005091906101ac565b60405180910390f35b61006c610067366004610217565b6100fc565b005b6000805461007b906102c8565b80601f01602080910402602001604051908101604052809291908181526020018280546100a7906102c8565b80156100f45780601f106100c9576101008083540402835291602001916100f4565b820191906000526020600020905b8154815290600101906020018083116100d757829003601f168201915b505050505081565b805161010f906000906020840190610113565b5050565b82805461011f906102c8565b90600052602060002090601f0160209004810192826101415760008555610187565b82601f1061015a57805160ff1916838001178555610187565b82800160010185558215610187579182015b8281111561018757825182559160200191906001019061016c565b50610193929150610197565b5090565b5b808211156101935760008155600101610198565b600060208083528351808285015260005b818110156101d9578581018301518582016040015282016101bd565b818111156101eb576000604083870101525b50601f01601f1916929092016040019392505050565b634e487b7160e01b600052604160045260246000fd5b60006020828403121561022957600080fd5b813567ffffffffffffffff8082111561024157600080fd5b818401915084601f83011261025557600080fd5b81358181111561026757610267610201565b604051601f8201601f19908116603f0116810190838211818310171561028f5761028f610201565b816040528281528760208487010111156102a857600080fd5b826020860160208301376000928101602001929092525095945050505050565b600181811c908216806102dc57607f821691505b6020821081036102fc57634e487b7160e01b600052602260045260246000fd5b5091905056fea2646970667358221220e37c28169fc87ed7d7e16ae808fad6def563e244b3b59b96744b498731fa602d64736f6c634300080d0033",
    "sourcePath": "c:/Users/USER/Desktop/Solidity/WriteintoHelloWorld.sol",
    "compiler": {
        "name": "solc",
        "version": "0.8.13+commit.abaa5c0e"
    },
    "functionHashes": {
        "WriteIntoHelloWorld(string)": "a00b114e",
        "helloworld()": "2f2f4859"
    },
    "gasEstimates": {
        "creation": {
            "codeDepositCost": "164800",
            "executionCost": "infinite",
            "totalCost": "infinite"
        },
        "external": {
            "WriteIntoHelloWorld(string)": "infinite",
            "helloworld()": "infinite"
        }
    }
}