{
    "contractName": "MappingStruct",
    "abi": [
        {
            "inputs": [],
            "name": "depositMapping",
            "outputs": [],
            "stateMutability": "payable",
            "type": "function"
        },
        {
            "inputs": [
                {
                    "internalType": "address",
                    "name": "",
                    "type": "address"
                }
            ],
            "name": "myAddressBoolMapping",
            "outputs": [
                {
                    "internalType": "bool",
                    "name": "",
                    "type": "bool"
                }
            ],
            "stateMutability": "view",
            "type": "function"
        },
        {
            "inputs": [
                {
                    "internalType": "address",
                    "name": "",
                    "type": "address"
                }
            ],
            "name": "myBalanceForAddress",
            "outputs": [
                {
                    "internalType": "uint256",
                    "name": "",
                    "type": "uint256"
                }
            ],
            "stateMutability": "view",
            "type": "function"
        },
        {
            "inputs": [
                {
                    "internalType": "address payable",
                    "name": "_to",
                    "type": "address"
                },
                {
                    "internalType": "uint256",
                    "name": "_amount",
                    "type": "uint256"
                }
            ],
            "name": "withdrawMapping",
            "outputs": [],
            "stateMutability": "nonpayable",
            "type": "function"
        },
        {
            "inputs": [
                {
                    "internalType": "bool",
                    "name": "_bool",
                    "type": "bool"
                }
            ],
            "name": "writeBoolMapping",
            "outputs": [],
            "stateMutability": "nonpayable",
            "type": "function"
        },
        {
            "inputs": [
                {
                    "internalType": "address",
                    "name": "_address",
                    "type": "address"
                },
                {
                    "internalType": "bool",
                    "name": "_bool",
                    "type": "bool"
                }
            ],
            "name": "writeBoolMapping",
            "outputs": [],
            "stateMutability": "nonpayable",
            "type": "function"
        }
    ],
    "bytecode": "608060405234801561001057600080fd5b50610369806100206000396000f3fe6080604052600436106100555760003560e01c80630986ac981461005a5780635671b0e71461009f5780636292b0e5146100a957806369355840146100e4578063697e76ac1461012a578063849b2e4e14610165575b600080fd5b34801561006657600080fd5b5061008a610075366004610239565b60006020819052908152604090205460ff1681565b60405190151581526020015b60405180910390f35b6100a7610185565b005b3480156100b557600080fd5b506100a76100c4366004610272565b336000908152602081905260409020805460ff1916911515919091179055565b3480156100f057600080fd5b506100a76100ff36600461028d565b6001600160a01b03919091166000908152602081905260409020805460ff1916911515919091179055565b34801561013657600080fd5b50610157610145366004610239565b60016020526000908152604090205481565b604051908152602001610096565b34801561017157600080fd5b506100a76101803660046102c2565b6101ab565b33600090815260016020526040812080543492906101a4908490610304565b9091555050565b33600090815260016020526040902054811161021d5733600090815260016020526040812080548392906101e090849061031c565b90915550506040516001600160a01b0383169082156108fc029083906000818181858888f1935050505015801561021b573d6000803e3d6000fd5b505b5050565b6001600160a01b038116811461023657600080fd5b50565b60006020828403121561024b57600080fd5b813561025681610221565b9392505050565b8035801515811461026d57600080fd5b919050565b60006020828403121561028457600080fd5b6102568261025d565b600080604083850312156102a057600080fd5b82356102ab81610221565b91506102b96020840161025d565b90509250929050565b600080604083850312156102d557600080fd5b82356102e081610221565b946020939093013593505050565b634e487b7160e01b600052601160045260246000fd5b60008219821115610317576103176102ee565b500190565b60008282101561032e5761032e6102ee565b50039056fea2646970667358221220012bdfad846bc7fc4a74b3cbbe10af8f45fb3caf90bee49b8118c7a504e1166c64736f6c634300080d0033",
    "sourcePath": "c:/Users/USER/Desktop/Solidity/Mapping.sol",
    "compiler": {
        "name": "solc",
        "version": "0.8.13+commit.abaa5c0e"
    },
    "functionHashes": {
        "depositMapping()": "5671b0e7",
        "myAddressBoolMapping(address)": "0986ac98",
        "myBalanceForAddress(address)": "697e76ac",
        "withdrawMapping(address,uint256)": "849b2e4e",
        "writeBoolMapping(address,bool)": "69355840",
        "writeBoolMapping(bool)": "6292b0e5"
    },
    "gasEstimates": {
        "creation": {
            "codeDepositCost": "174600",
            "executionCost": "220",
            "totalCost": "174820"
        },
        "external": {
            "depositMapping()": "24485",
            "myAddressBoolMapping(address)": "2495",
            "myBalanceForAddress(address)": "2579",
            "withdrawMapping(address,uint256)": "infinite",
            "writeBoolMapping(address,bool)": "24753",
            "writeBoolMapping(bool)": "24610"
        }
    }
}