{
    "contractName": "SimpleCoin",
    "abi": [
        {
            "inputs": [],
            "stateMutability": "nonpayable",
            "type": "constructor"
        },
        {
            "inputs": [
                {
                    "internalType": "address",
                    "name": "",
                    "type": "address"
                }
            ],
            "name": "coinBalance",
            "outputs": [
                {
                    "internalType": "uint256",
                    "name": "",
                    "type": "uint256"
                }
            ],
            "stateMutability": "view",
            "type": "function"
        },
        {
            "inputs": [
                {
                    "internalType": "address",
                    "name": "_to",
                    "type": "address"
                },
                {
                    "internalType": "uint256",
                    "name": "_amount",
                    "type": "uint256"
                }
            ],
            "name": "transfer",
            "outputs": [],
            "stateMutability": "nonpayable",
            "type": "function"
        }
    ],
    "bytecode": "608060405234801561001057600080fd5b50735b38da6a701c568545dcfcb03fcb875f56beddc460009081526020526127107f58f8e73c330daffe64653449eb9a999c1162911d5129dd8193c7233d46ade2d5556101ba806100626000396000f3fe608060405234801561001057600080fd5b50600436106100365760003560e01c8063a9059cbb1461003b578063fabde80c14610050575b600080fd5b61004e6100493660046100f3565b610082565b005b61007061005e36600461011d565b60006020819052908152604090205481565b60405190815260200160405180910390f35b33600090815260208190526040812080548392906100a1908490610155565b90915550506001600160a01b038216600090815260208190526040812080548392906100ce90849061016c565b90915550505050565b80356001600160a01b03811681146100ee57600080fd5b919050565b6000806040838503121561010657600080fd5b61010f836100d7565b946020939093013593505050565b60006020828403121561012f57600080fd5b610138826100d7565b9392505050565b634e487b7160e01b600052601160045260246000fd5b6000828210156101675761016761013f565b500390565b6000821982111561017f5761017f61013f565b50019056fea26469706673582212207552720df8b901a77bb8a30bb6ca6e176dda130254d2427208ef0cca4f267a6a64736f6c634300080d0033",
    "sourcePath": "c:/Users/USER/Desktop/Solidity/SimpleCoin.sol",
    "compiler": {
        "name": "solc",
        "version": "0.8.13+commit.abaa5c0e"
    },
    "functionHashes": {
        "coinBalance(address)": "fabde80c",
        "transfer(address,uint256)": "a9059cbb"
    },
    "gasEstimates": {
        "creation": {
            "codeDepositCost": "88400",
            "executionCost": "22262",
            "totalCost": "110662"
        },
        "external": {
            "coinBalance(address)": "2510",
            "transfer(address,uint256)": "49059"
        }
    }
}