{
    "contractName": "Variables",
    "abi": [
        {
            "inputs": [],
            "name": "DivisionExample",
            "outputs": [
                {
                    "internalType": "uint8",
                    "name": "",
                    "type": "uint8"
                }
            ],
            "stateMutability": "pure",
            "type": "function"
        },
        {
            "inputs": [],
            "name": "compare32and1",
            "outputs": [
                {
                    "internalType": "bool",
                    "name": "",
                    "type": "bool"
                }
            ],
            "stateMutability": "view",
            "type": "function"
        },
        {
            "inputs": [],
            "name": "getMyBytesLength",
            "outputs": [
                {
                    "internalType": "uint8",
                    "name": "",
                    "type": "uint8"
                }
            ],
            "stateMutability": "view",
            "type": "function"
        },
        {
            "inputs": [],
            "name": "myBool",
            "outputs": [
                {
                    "internalType": "bool",
                    "name": "",
                    "type": "bool"
                }
            ],
            "stateMutability": "view",
            "type": "function"
        },
        {
            "inputs": [],
            "name": "myBytes1",
            "outputs": [
                {
                    "internalType": "bytes1",
                    "name": "",
                    "type": "bytes1"
                }
            ],
            "stateMutability": "view",
            "type": "function"
        },
        {
            "inputs": [],
            "name": "myBytes32",
            "outputs": [
                {
                    "internalType": "bytes32",
                    "name": "",
                    "type": "bytes32"
                }
            ],
            "stateMutability": "view",
            "type": "function"
        },
        {
            "inputs": [],
            "name": "myBytesCompare",
            "outputs": [
                {
                    "internalType": "bool",
                    "name": "",
                    "type": "bool"
                }
            ],
            "stateMutability": "view",
            "type": "function"
        },
        {
            "inputs": [],
            "name": "myUintWrapAround",
            "outputs": [
                {
                    "internalType": "uint8",
                    "name": "",
                    "type": "uint8"
                }
            ],
            "stateMutability": "pure",
            "type": "function"
        },
        {
            "inputs": [],
            "name": "myUints",
            "outputs": [
                {
                    "internalType": "uint8",
                    "name": "",
                    "type": "uint8"
                }
            ],
            "stateMutability": "view",
            "type": "function"
        },
        {
            "inputs": [
                {
                    "internalType": "bool",
                    "name": "_myBool",
                    "type": "bool"
                }
            ],
            "name": "setbool",
            "outputs": [],
            "stateMutability": "nonpayable",
            "type": "function"
        }
    ],
    "bytecode": "60806040526000805462ffffff191662ffff0017905560001960015534801561002757600080fd5b50610285806100376000396000f3fe608060405234801561001057600080fd5b506004361061009e5760003560e01c8063890c8bd511610066578063890c8bd51461011c5780638eeb479514610142578063a675b3ab14610161578063ae2bc5f314610169578063bb080fdc1461017b57600080fd5b806307808105146100a3578063181aed2e146100bd5780633b065b78146100c55780634b3e7e0c146100e85780636deecdbe146100ff575b600080fd5b60015b60405160ff90911681526020015b60405180910390f35b6100a66101a7565b6100e66100d33660046101d2565b6000805460ff1916911515919091179055565b005b6100f160015481565b6040519081526020016100b4565b60005461010c9060ff1681565b60405190151581526020016100b4565b6000546001600160f01b03196201000090910460f81b6001600160f81b0319161061010c565b60015460005462010000900460f81b6001600160f81b0319161061010c565b6100a66101bb565b6000546100a690610100900460ff1681565b60005461018e9062010000900460f81b81565b6040516001600160f81b031990911681526020016100b4565b600080806101b4816101f4565b9392505050565b6000600560026101cb818361021f565b9250505090565b6000602082840312156101e457600080fd5b813580151581146101b457600080fd5b600060ff82168061021557634e487b7160e01b600052601160045260246000fd5b6000190192915050565b600060ff83168061024057634e487b7160e01b600052601260045260246000fd5b8060ff8416049150509291505056fea26469706673582212200d41366053fea03084f03b17fd23aa2bb100e7aaf147ac504077a798f17570e264736f6c634300080d0033",
    "sourcePath": "c:/Users/USER/Desktop/Solidity/Variables.sol",
    "compiler": {
        "name": "solc",
        "version": "0.8.13+commit.abaa5c0e"
    },
    "functionHashes": {
        "DivisionExample()": "a675b3ab",
        "compare32and1()": "8eeb4795",
        "getMyBytesLength()": "07808105",
        "myBool()": "6deecdbe",
        "myBytes1()": "bb080fdc",
        "myBytes32()": "4b3e7e0c",
        "myBytesCompare()": "890c8bd5",
        "myUintWrapAround()": "181aed2e",
        "myUints()": "ae2bc5f3",
        "setbool(bool)": "3b065b78"
    },
    "gasEstimates": {
        "creation": {
            "codeDepositCost": "129000",
            "executionCost": "46510",
            "totalCost": "175510"
        },
        "external": {
            "DivisionExample()": "357",
            "compare32and1()": "4464",
            "getMyBytesLength()": "180",
            "myBool()": "2399",
            "myBytes1()": "2427",
            "myBytes32()": "2362",
            "myBytesCompare()": "2360",
            "myUintWrapAround()": "243",
            "myUints()": "2379",
            "setbool(bool)": "24527"
        }
    }
}