{
    "contractName": "ViewPureFunctions",
    "abi": [
        {
            "inputs": [],
            "name": "fiveTimesMyUint",
            "outputs": [
                {
                    "internalType": "uint256",
                    "name": "",
                    "type": "uint256"
                }
            ],
            "stateMutability": "view",
            "type": "function"
        },
        {
            "inputs": [],
            "name": "getMyUint",
            "outputs": [
                {
                    "internalType": "uint256",
                    "name": "",
                    "type": "uint256"
                }
            ],
            "stateMutability": "view",
            "type": "function"
        },
        {
            "inputs": [
                {
                    "internalType": "uint256",
                    "name": "_someNumber",
                    "type": "uint256"
                }
            ],
            "name": "multiplyByFive",
            "outputs": [
                {
                    "internalType": "uint256",
                    "name": "",
                    "type": "uint256"
                }
            ],
            "stateMutability": "pure",
            "type": "function"
        },
        {
            "inputs": [
                {
                    "internalType": "uint256",
                    "name": "_myUint",
                    "type": "uint256"
                }
            ],
            "name": "updateMyUint",
            "outputs": [],
            "stateMutability": "nonpayable",
            "type": "function"
        }
    ],
    "bytecode": "6080604052600560005534801561001557600080fd5b50610123806100256000396000f3fe6080604052348015600f57600080fd5b506004361060465760003560e01c8063392aee4714604b5780634e7d11411460615780637f2e41d91460675780638080942c146076575b600080fd5b6000545b60405190815260200160405180910390f35b604f6088565b604f607236600460a9565b6098565b6086608136600460a9565b600055565b005b600060936000546098565b905090565b600060a382600560c1565b92915050565b60006020828403121560ba57600080fd5b5035919050565b600081600019048311821515161560e857634e487b7160e01b600052601160045260246000fd5b50029056fea26469706673582212202dc0df6684cb8bdb42d90b3ce4f4fea452d269499530aedca1ccee2eb7e485d464736f6c634300080d0033",
    "sourcePath": "c:/Users/USER/Desktop/Solidity/ViewPureFunctions.sol",
    "compiler": {
        "name": "solc",
        "version": "0.8.13+commit.abaa5c0e"
    },
    "functionHashes": {
        "fiveTimesMyUint()": "4e7d1141",
        "getMyUint()": "392aee47",
        "multiplyByFive(uint256)": "7f2e41d9",
        "updateMyUint(uint256)": "8080942c"
    },
    "gasEstimates": {
        "creation": {
            "codeDepositCost": "58200",
            "executionCost": "22217",
            "totalCost": "80417"
        },
        "external": {
            "fiveTimesMyUint()": "2432",
            "getMyUint()": "2247",
            "multiplyByFive(uint256)": "393",
            "updateMyUint(uint256)": "22356"
        }
    }
}