{
    "contractName": "GameManager",
    "abi": [
        {
            "inputs": [],
            "stateMutability": "nonpayable",
            "type": "constructor"
        },
        {
            "anonymous": false,
            "inputs": [
                {
                    "indexed": false,
                    "internalType": "address",
                    "name": "_player",
                    "type": "address"
                },
                {
                    "indexed": false,
                    "internalType": "address",
                    "name": "_gameAddress",
                    "type": "address"
                }
            ],
            "name": "EventGameCreated",
            "type": "event"
        },
        {
            "inputs": [
                {
                    "internalType": "address",
                    "name": "_winner",
                    "type": "address"
                }
            ],
            "name": "enterWinner",
            "outputs": [],
            "stateMutability": "nonpayable",
            "type": "function"
        },
        {
            "inputs": [],
            "name": "getTop10",
            "outputs": [],
            "stateMutability": "view",
            "type": "function"
        },
        {
            "inputs": [],
            "name": "startNewGame",
            "outputs": [],
            "stateMutability": "payable",
            "type": "function"
        }
    ],
    "bytecode": "608060405234801561001057600080fd5b503060405161001e90610070565b6001600160a01b039091168152602001604051809103906000f08015801561004a573d6000803e3d6000fd5b50600080546001600160a01b0319166001600160a01b039290921691909117905561007d565b610157806105b283390190565b6105268061008c6000396000f3fe6080604052600436106100345760003560e01c8063482d51e01461003957806384837ee114610043578063d2add17b1461004f575b600080fd5b61004161006d565b005b34801561004157600080fd5b34801561005b57600080fd5b5061004161006a366004610115565b50565b6000331561007a57600080fd5b600034308360405161008b90610108565b6001600160a01b039283168152911660208201526040016040518091039082f09050801580156100bf573d6000803e3d6000fd5b50604080513381526001600160a01b03831660208201529192507fffedcfc5617a2a5435647110e8c02752bcaae6960ff6df59d68f13d58f550ada910160405180910390a15050565b6103ab8061014683390190565b60006020828403121561012757600080fd5b81356001600160a01b038116811461013e57600080fd5b939250505056fe608060405267016345785d8a00006001556040516103ab3803806103ab83398101604081905261002e916100cd565b600080546001600160a01b0319166001600160a01b038416179055600154341461008f5760405162461bcd60e51b815260206004820152600e60248201526d416464206d6f7265206d6f6e657960901b604482015260640160405180910390fd5b600280546001600160a01b0319166001600160a01b039290921691909117905550610107565b6001600160a01b03811681146100ca57600080fd5b50565b600080604083850312156100e057600080fd5b82516100eb816100b5565b60208401519092506100fc816100b5565b809150509250929050565b610295806101166000396000f3fe60806040526004361061007b5760003560e01c8063cab896dc1161004e578063cab896dc14610112578063d30895e414610136578063d4f77b1c146100b9578063fb815503146100ab57600080fd5b80633264a34b146100805780633fde48ca146100ab57806359a5f12d146100bb5780637d3f9074146100f3575b600080fd5b34801561008c57600080fd5b50610095610156565b6040516100a291906101ac565b60405180910390f35b3480156100b757600080fd5b505b005b3480156100c757600080fd5b506003546100db906001600160a01b031681565b6040516001600160a01b0390911681526020016100a2565b3480156100ff57600080fd5b506100b961010e36600461022c565b5050565b34801561011e57600080fd5b5061012860015481565b6040519081526020016100a2565b34801561014257600080fd5b506002546100db906001600160a01b031681565b61015e610161565b90565b60405180606001604052806003905b61017861018e565b8152602001906001900390816101705790505090565b60405180606001604052806003906020820280368337509192915050565b610120810181836000805b60038082106101c6575061020c565b835185845b838110156101f25782516001600160a01b03168252602092830192909101906001016101cb565b5050506060949094019350602092909201916001016101b7565b5050505092915050565b803560ff8116811461022757600080fd5b919050565b6000806040838503121561023f57600080fd5b61024883610216565b915061025660208401610216565b9050925092905056fea2646970667358221220b2e8d8928b84e4c021fb216943bec8e82d86e21ec75a19fe905296169f1f50d264736f6c634300080d0033a2646970667358221220cbcf261769a30dc2510e899d060514c1b2f6d57b9dbe79a9346269f0c9b78d5b64736f6c634300080d0033608060405234801561001057600080fd5b5060405161015738038061015783398101604081905261002f91610054565b600080546001600160a01b0319166001600160a01b0392909216919091179055610084565b60006020828403121561006657600080fd5b81516001600160a01b038116811461007d57600080fd5b9392505050565b60c5806100926000396000f3fe6080604052348015600f57600080fd5b506004361060325760003560e01c806307f9089c14603757806384837ee1146046575b600080fd5b604660423660046061565b6048565b005b6000546001600160a01b03163314605e57600080fd5b50565b600060208284031215607257600080fd5b81356001600160a01b0381168114608857600080fd5b939250505056fea2646970667358221220b37a5253bfc0923cdf663e5ebd99d39edfbd262ef811559e21ac7a4840ecfb5364736f6c634300080d0033",
    "sourcePath": "c:/Users/USER/Desktop/Solidity/TickTackToeGame/GameManager.sol",
    "compiler": {
        "name": "solc",
        "version": "0.8.13+commit.abaa5c0e"
    },
    "functionHashes": {
        "enterWinner(address)": "d2add17b",
        "getTop10()": "84837ee1",
        "startNewGame()": "482d51e0"
    },
    "gasEstimates": {
        "creation": {
            "codeDepositCost": "263600",
            "executionCost": "infinite",
            "totalCost": "infinite"
        },
        "external": {
            "enterWinner(address)": "279",
            "getTop10()": "123",
            "startNewGame()": "infinite"
        }
    }
}